{
  "_format": "hh-sol-artifact-1",
  "contractName": "Resume",
  "sourceName": "contracts/Resume.sol",
  "abi": [
    {
      "anonymous": false,
      "inputs": [
        {
          "indexed": false,
          "internalType": "address",
          "name": "sender",
          "type": "address"
        },
        {
          "indexed": false,
          "internalType": "string",
          "name": "name",
          "type": "string"
        },
        {
          "indexed": false,
          "internalType": "int8",
          "name": "age",
          "type": "int8"
        },
        {
          "indexed": false,
          "internalType": "enum Resume.Sex",
          "name": "sex",
          "type": "uint8"
        },
        {
          "indexed": false,
          "internalType": "string",
          "name": "phone",
          "type": "string"
        },
        {
          "indexed": false,
          "internalType": "string",
          "name": "Email",
          "type": "string"
        },
        {
          "indexed": false,
          "internalType": "string",
          "name": "location",
          "type": "string"
        },
        {
          "indexed": false,
          "internalType": "string",
          "name": "file",
          "type": "string"
        },
        {
          "indexed": false,
          "internalType": "uint256",
          "name": "date",
          "type": "uint256"
        },
        {
          "indexed": false,
          "internalType": "string",
          "name": "doc",
          "type": "string"
        }
      ],
      "name": "ResumeInfoEvent",
      "type": "event"
    },
    {
      "inputs": [
        {
          "internalType": "address",
          "name": "loca",
          "type": "address"
        }
      ],
      "name": "getActiveUser",
      "outputs": [
        {
          "components": [
            {
              "internalType": "address",
              "name": "sender",
              "type": "address"
            },
            {
              "internalType": "string",
              "name": "name",
              "type": "string"
            },
            {
              "internalType": "int8",
              "name": "age",
              "type": "int8"
            },
            {
              "internalType": "enum Resume.Sex",
              "name": "sex",
              "type": "uint8"
            },
            {
              "internalType": "string",
              "name": "phone",
              "type": "string"
            },
            {
              "internalType": "string",
              "name": "Email",
              "type": "string"
            },
            {
              "internalType": "string",
              "name": "location",
              "type": "string"
            },
            {
              "internalType": "string",
              "name": "file",
              "type": "string"
            },
            {
              "internalType": "uint256",
              "name": "timestamp",
              "type": "uint256"
            },
            {
              "internalType": "string",
              "name": "doc",
              "type": "string"
            }
          ],
          "internalType": "struct Resume.ResumeInfo",
          "name": "",
          "type": "tuple"
        }
      ],
      "stateMutability": "view",
      "type": "function"
    },
    {
      "inputs": [],
      "name": "getData",
      "outputs": [
        {
          "internalType": "int256",
          "name": "",
          "type": "int256"
        }
      ],
      "stateMutability": "view",
      "type": "function"
    },
    {
      "inputs": [],
      "name": "getUserList",
      "outputs": [
        {
          "internalType": "address[]",
          "name": "",
          "type": "address[]"
        }
      ],
      "stateMutability": "view",
      "type": "function"
    },
    {
      "inputs": [
        {
          "internalType": "address",
          "name": "",
          "type": "address"
        }
      ],
      "name": "resumeInfo",
      "outputs": [
        {
          "internalType": "address",
          "name": "sender",
          "type": "address"
        },
        {
          "internalType": "string",
          "name": "name",
          "type": "string"
        },
        {
          "internalType": "int8",
          "name": "age",
          "type": "int8"
        },
        {
          "internalType": "enum Resume.Sex",
          "name": "sex",
          "type": "uint8"
        },
        {
          "internalType": "string",
          "name": "phone",
          "type": "string"
        },
        {
          "internalType": "string",
          "name": "Email",
          "type": "string"
        },
        {
          "internalType": "string",
          "name": "location",
          "type": "string"
        },
        {
          "internalType": "string",
          "name": "file",
          "type": "string"
        },
        {
          "internalType": "uint256",
          "name": "timestamp",
          "type": "uint256"
        },
        {
          "internalType": "string",
          "name": "doc",
          "type": "string"
        }
      ],
      "stateMutability": "view",
      "type": "function"
    },
    {
      "inputs": [
        {
          "internalType": "string",
          "name": "_name",
          "type": "string"
        },
        {
          "internalType": "int8",
          "name": "_age",
          "type": "int8"
        },
        {
          "internalType": "enum Resume.Sex",
          "name": "_sex",
          "type": "uint8"
        },
        {
          "internalType": "string",
          "name": "_phone",
          "type": "string"
        },
        {
          "internalType": "string",
          "name": "_Email",
          "type": "string"
        },
        {
          "internalType": "string",
          "name": "_location",
          "type": "string"
        },
        {
          "internalType": "string",
          "name": "_file",
          "type": "string"
        },
        {
          "internalType": "string",
          "name": "_doc",
          "type": "string"
        }
      ],
      "name": "setResumeInfo",
      "outputs": [],
      "stateMutability": "nonpayable",
      "type": "function"
    }
  ],
  "bytecode": "0x608060405234801561001057600080fd5b506119b7806100206000396000f3fe608060405234801561001057600080fd5b50600436106100575760003560e01c80633bc5de301461005c57806353837ee71461007a5780636f95dfb9146100aa578063b8522043146100e3578063bcfe906514610101575b600080fd5b61006461011d565b6040516100719190611629565b60405180910390f35b610094600480360381019061008f919061116a565b6101c2565b6040516100a19190611644565b60405180910390f35b6100c460048036038101906100bf919061116a565b61068c565b6040516100da9a99989796959493929190611541565b60405180910390f35b6100eb610a4a565b6040516100f89190611607565b60405180910390f35b61011b60048036038101906101169190611193565b610ad8565b005b6000806101b93360008054806020026020016040519081016040528092919081815260200182805480156101a657602002820191906000526020600020905b8160009054906101000a900473ffffffffffffffffffffffffffffffffffffffff1673ffffffffffffffffffffffffffffffffffffffff168152602001906001019080831161015c575b5050505050610eaf90919063ffffffff16565b90508091505090565b6101ca610f7d565b600160008373ffffffffffffffffffffffffffffffffffffffff1673ffffffffffffffffffffffffffffffffffffffff168152602001908152602001600020604051806101400160405290816000820160009054906101000a900473ffffffffffffffffffffffffffffffffffffffff1673ffffffffffffffffffffffffffffffffffffffff1673ffffffffffffffffffffffffffffffffffffffff16815260200160018201805461027b906117e7565b80601f01602080910402602001604051908101604052809291908181526020018280546102a7906117e7565b80156102f45780601f106102c9576101008083540402835291602001916102f4565b820191906000526020600020905b8154815290600101906020018083116102d757829003601f168201915b505050505081526020016002820160009054906101000a900460000b60000b60000b81526020016002820160019054906101000a900460ff166001811115610365577f4e487b7100000000000000000000000000000000000000000000000000000000600052602160045260246000fd5b600181111561039d577f4e487b7100000000000000000000000000000000000000000000000000000000600052602160045260246000fd5b81526020016003820180546103b1906117e7565b80601f01602080910402602001604051908101604052809291908181526020018280546103dd906117e7565b801561042a5780601f106103ff5761010080835404028352916020019161042a565b820191906000526020600020905b81548152906001019060200180831161040d57829003601f168201915b50505050508152602001600482018054610443906117e7565b80601f016020809104026020016040519081016040528092919081815260200182805461046f906117e7565b80156104bc5780601f10610491576101008083540402835291602001916104bc565b820191906000526020600020905b81548152906001019060200180831161049f57829003601f168201915b505050505081526020016005820180546104d5906117e7565b80601f0160208091040260200160405190810160405280929190818152602001828054610501906117e7565b801561054e5780601f106105235761010080835404028352916020019161054e565b820191906000526020600020905b81548152906001019060200180831161053157829003601f168201915b50505050508152602001600682018054610567906117e7565b80601f0160208091040260200160405190810160405280929190818152602001828054610593906117e7565b80156105e05780601f106105b5576101008083540402835291602001916105e0565b820191906000526020600020905b8154815290600101906020018083116105c357829003601f168201915b5050505050815260200160078201548152602001600882018054610603906117e7565b80601f016020809104026020016040519081016040528092919081815260200182805461062f906117e7565b801561067c5780601f106106515761010080835404028352916020019161067c565b820191906000526020600020905b81548152906001019060200180831161065f57829003601f168201915b5050505050815250509050919050565b60016020528060005260406000206000915090508060000160009054906101000a900473ffffffffffffffffffffffffffffffffffffffff16908060010180546106d5906117e7565b80601f0160208091040260200160405190810160405280929190818152602001828054610701906117e7565b801561074e5780601f106107235761010080835404028352916020019161074e565b820191906000526020600020905b81548152906001019060200180831161073157829003601f168201915b5050505050908060020160009054906101000a900460000b908060020160019054906101000a900460ff1690806003018054610789906117e7565b80601f01602080910402602001604051908101604052809291908181526020018280546107b5906117e7565b80156108025780601f106107d757610100808354040283529160200191610802565b820191906000526020600020905b8154815290600101906020018083116107e557829003601f168201915b505050505090806004018054610817906117e7565b80601f0160208091040260200160405190810160405280929190818152602001828054610843906117e7565b80156108905780601f1061086557610100808354040283529160200191610890565b820191906000526020600020905b81548152906001019060200180831161087357829003601f168201915b5050505050908060050180546108a5906117e7565b80601f01602080910402602001604051908101604052809291908181526020018280546108d1906117e7565b801561091e5780601f106108f35761010080835404028352916020019161091e565b820191906000526020600020905b81548152906001019060200180831161090157829003601f168201915b505050505090806006018054610933906117e7565b80601f016020809104026020016040519081016040528092919081815260200182805461095f906117e7565b80156109ac5780601f10610981576101008083540402835291602001916109ac565b820191906000526020600020905b81548152906001019060200180831161098f57829003601f168201915b5050505050908060070154908060080180546109c7906117e7565b80601f01602080910402602001604051908101604052809291908181526020018280546109f3906117e7565b8015610a405780601f10610a1557610100808354040283529160200191610a40565b820191906000526020600020905b815481529060010190602001808311610a2357829003601f168201915b505050505090508a565b60606000805480602002602001604051908101604052809291908181526020018280548015610ace57602002820191906000526020600020905b8160009054906101000a900473ffffffffffffffffffffffffffffffffffffffff1673ffffffffffffffffffffffffffffffffffffffff1681526020019060010190808311610a84575b5050505050905090565b60004290506000610b78336000805480602002602001604051908101604052809291908181526020018280548015610b6557602002820191906000526020600020905b8160009054906101000a900473ffffffffffffffffffffffffffffffffffffffff1673ffffffffffffffffffffffffffffffffffffffff1681526020019060010190808311610b1b575b5050505050610eaf90919063ffffffff16565b90507fffffffffffffffffffffffffffffffffffffffffffffffffffffffffffffffff811415610c06576000339080600181540180825580915050600190039060005260206000200160009091909190916101000a81548173ffffffffffffffffffffffffffffffffffffffff021916908373ffffffffffffffffffffffffffffffffffffffff1602179055505b6040518061014001604052803373ffffffffffffffffffffffffffffffffffffffff1681526020018b81526020018a60000b8152602001896001811115610c76577f4e487b7100000000000000000000000000000000000000000000000000000000600052602160045260246000fd5b815260200188815260200187815260200186815260200185815260200183815260200184815250600160003373ffffffffffffffffffffffffffffffffffffffff1673ffffffffffffffffffffffffffffffffffffffff16815260200190815260200160002060008201518160000160006101000a81548173ffffffffffffffffffffffffffffffffffffffff021916908373ffffffffffffffffffffffffffffffffffffffff1602179055506020820151816001019080519060200190610d3f929190611020565b5060408201518160020160006101000a81548160ff021916908360000b60ff16021790555060608201518160020160016101000a81548160ff02191690836001811115610db5577f4e487b7100000000000000000000000000000000000000000000000000000000600052602160045260246000fd5b02179055506080820151816003019080519060200190610dd6929190611020565b5060a0820151816004019080519060200190610df3929190611020565b5060c0820151816005019080519060200190610e10929190611020565b5060e0820151816006019080519060200190610e2d929190611020565b506101008201518160070155610120820151816008019080519060200190610e56929190611020565b509050507ff63bb25433dac4097df15abf6a382c2ae5e367f1e449873772960ddee0e104ec338b8b8b8b8b8b8b8a8c604051610e9b9a99989796959493929190611541565b60405180910390a150505050505050505050565b6000807fffffffffffffffffffffffffffffffffffffffffffffffffffffffffffffffff905060008451905060005b81811215610f71578473ffffffffffffffffffffffffffffffffffffffff16868281518110610f36577f4e487b7100000000000000000000000000000000000000000000000000000000600052603260045260246000fd5b602002602001015173ffffffffffffffffffffffffffffffffffffffff161415610f5e578092505b8080610f6990611819565b915050610ede565b50819250505092915050565b604051806101400160405280600073ffffffffffffffffffffffffffffffffffffffff168152602001606081526020016000800b815260200160006001811115610ff0577f4e487b7100000000000000000000000000000000000000000000000000000000600052602160045260246000fd5b81526020016060815260200160608152602001606081526020016060815260200160008152602001606081525090565b82805461102c906117e7565b90600052602060002090601f01602090048101928261104e5760008555611095565b82601f1061106757805160ff1916838001178555611095565b82800160010185558215611095579182015b82811115611094578251825591602001919060010190611079565b5b5090506110a291906110a6565b5090565b5b808211156110bf5760008160009055506001016110a7565b5090565b60006110d66110d184611697565b611666565b9050828152602081018484840111156110ee57600080fd5b6110f98482856117a5565b509392505050565b60008135905061111081611943565b92915050565b6000813590506111258161195a565b92915050565b60008135905061113a8161196a565b92915050565b600082601f83011261115157600080fd5b81356111618482602086016110c3565b91505092915050565b60006020828403121561117c57600080fd5b600061118a84828501611101565b91505092915050565b600080600080600080600080610100898b0312156111b057600080fd5b600089013567ffffffffffffffff8111156111ca57600080fd5b6111d68b828c01611140565b98505060206111e78b828c0161112b565b97505060406111f88b828c01611116565b965050606089013567ffffffffffffffff81111561121557600080fd5b6112218b828c01611140565b955050608089013567ffffffffffffffff81111561123e57600080fd5b61124a8b828c01611140565b94505060a089013567ffffffffffffffff81111561126757600080fd5b6112738b828c01611140565b93505060c089013567ffffffffffffffff81111561129057600080fd5b61129c8b828c01611140565b92505060e089013567ffffffffffffffff8111156112b957600080fd5b6112c58b828c01611140565b9150509295985092959890939650565b60006112e183836112ed565b60208301905092915050565b6112f68161172d565b82525050565b6113058161172d565b82525050565b6000611316826116d7565b61132081856116fa565b935061132b836116c7565b8060005b8381101561135c57815161134388826112d5565b975061134e836116ed565b92505060018101905061132f565b5085935050505092915050565b61137281611793565b82525050565b61138181611793565b82525050565b61139081611752565b82525050565b61139f8161175c565b82525050565b6113ae8161175c565b82525050565b60006113bf826116e2565b6113c9818561170b565b93506113d98185602086016117b4565b6113e28161191e565b840191505092915050565b60006113f8826116e2565b611402818561171c565b93506114128185602086016117b4565b61141b8161191e565b840191505092915050565b60006101408301600083015161143f60008601826112ed565b506020830151848203602086015261145782826113b4565b915050604083015161146c6040860182611396565b50606083015161147f6060860182611369565b506080830151848203608086015261149782826113b4565b91505060a083015184820360a08601526114b182826113b4565b91505060c083015184820360c08601526114cb82826113b4565b91505060e083015184820360e08601526114e582826113b4565b9150506101008301516114fc610100860182611523565b5061012083015184820361012086015261151682826113b4565b9150508091505092915050565b61152c81611789565b82525050565b61153b81611789565b82525050565b600061014082019050611557600083018d6112fc565b8181036020830152611569818c6113ed565b9050611578604083018b6113a5565b611585606083018a611378565b818103608083015261159781896113ed565b905081810360a08301526115ab81886113ed565b905081810360c08301526115bf81876113ed565b905081810360e08301526115d381866113ed565b90506115e3610100830185611532565b8181036101208301526115f681846113ed565b90509b9a5050505050505050505050565b60006020820190508181036000830152611621818461130b565b905092915050565b600060208201905061163e6000830184611387565b92915050565b6000602082019050818103600083015261165e8184611426565b905092915050565b6000604051905081810181811067ffffffffffffffff8211171561168d5761168c6118ef565b5b8060405250919050565b600067ffffffffffffffff8211156116b2576116b16118ef565b5b601f19601f8301169050602081019050919050565b6000819050602082019050919050565b600081519050919050565b600081519050919050565b6000602082019050919050565b600082825260208201905092915050565b600082825260208201905092915050565b600082825260208201905092915050565b600061173882611769565b9050919050565b600081905061174d8261192f565b919050565b6000819050919050565b60008160000b9050919050565b600073ffffffffffffffffffffffffffffffffffffffff82169050919050565b6000819050919050565b600061179e8261173f565b9050919050565b82818337600083830152505050565b60005b838110156117d25780820151818401526020810190506117b7565b838111156117e1576000848401525b50505050565b600060028204905060018216806117ff57607f821691505b60208210811415611813576118126118c0565b5b50919050565b600061182482611752565b91507f7fffffffffffffffffffffffffffffffffffffffffffffffffffffffffffffff82141561185757611856611862565b5b600182019050919050565b7f4e487b7100000000000000000000000000000000000000000000000000000000600052601160045260246000fd5b7f4e487b7100000000000000000000000000000000000000000000000000000000600052602160045260246000fd5b7f4e487b7100000000000000000000000000000000000000000000000000000000600052602260045260246000fd5b7f4e487b7100000000000000000000000000000000000000000000000000000000600052604160045260246000fd5b6000601f19601f8301169050919050565b600281106119405761193f611891565b5b50565b61194c8161172d565b811461195757600080fd5b50565b6002811061196757600080fd5b50565b6119738161175c565b811461197e57600080fd5b5056fea26469706673582212208ed28463066c5ee7c840e9f8ada478ca44f6e8206f645b603bc07bbdbb2a8abf64736f6c63430008000033",
  "linkReferences": {},
  "deployedLinkReferences": {}
}