{
  "_format": "hh-sol-artifact-1",
  "contractName": "Resume",
  "sourceName": "contracts/Resume.sol",
  "abi": [
    {
      "anonymous": false,
      "inputs": [
        {
          "indexed": false,
          "internalType": "address",
          "name": "sender",
          "type": "address"
        },
        {
          "indexed": false,
          "internalType": "string",
          "name": "name",
          "type": "string"
        },
        {
          "indexed": false,
          "internalType": "int8",
          "name": "age",
          "type": "int8"
        },
        {
          "indexed": false,
          "internalType": "enum Resume.Sex",
          "name": "sex",
          "type": "uint8"
        },
        {
          "indexed": false,
          "internalType": "uint16",
          "name": "phone",
          "type": "uint16"
        },
        {
          "indexed": false,
          "internalType": "string",
          "name": "Email",
          "type": "string"
        },
        {
          "indexed": false,
          "internalType": "string",
          "name": "location",
          "type": "string"
        },
        {
          "indexed": false,
          "internalType": "string",
          "name": "file",
          "type": "string"
        },
        {
          "indexed": false,
          "internalType": "uint256",
          "name": "date",
          "type": "uint256"
        },
        {
          "indexed": false,
          "internalType": "string",
          "name": "doc",
          "type": "string"
        }
      ],
      "name": "ResumeInfoEvent",
      "type": "event"
    },
    {
      "inputs": [
        {
          "internalType": "address",
          "name": "loca",
          "type": "address"
        }
      ],
      "name": "getActiveUser",
      "outputs": [
        {
          "components": [
            {
              "internalType": "string",
              "name": "name",
              "type": "string"
            },
            {
              "internalType": "int8",
              "name": "age",
              "type": "int8"
            },
            {
              "internalType": "enum Resume.Sex",
              "name": "sex",
              "type": "uint8"
            },
            {
              "internalType": "uint16",
              "name": "phone",
              "type": "uint16"
            },
            {
              "internalType": "string",
              "name": "Email",
              "type": "string"
            },
            {
              "internalType": "string",
              "name": "location",
              "type": "string"
            },
            {
              "internalType": "string",
              "name": "file",
              "type": "string"
            },
            {
              "internalType": "uint256",
              "name": "timestamp",
              "type": "uint256"
            },
            {
              "internalType": "string",
              "name": "doc",
              "type": "string"
            }
          ],
          "internalType": "struct Resume.ResumeInfo",
          "name": "",
          "type": "tuple"
        }
      ],
      "stateMutability": "view",
      "type": "function"
    },
    {
      "inputs": [],
      "name": "getData",
      "outputs": [
        {
          "internalType": "int256",
          "name": "",
          "type": "int256"
        }
      ],
      "stateMutability": "view",
      "type": "function"
    },
    {
      "inputs": [],
      "name": "getUserList",
      "outputs": [
        {
          "internalType": "address[]",
          "name": "",
          "type": "address[]"
        }
      ],
      "stateMutability": "view",
      "type": "function"
    },
    {
      "inputs": [
        {
          "internalType": "address",
          "name": "",
          "type": "address"
        }
      ],
      "name": "resumeInfo",
      "outputs": [
        {
          "internalType": "string",
          "name": "name",
          "type": "string"
        },
        {
          "internalType": "int8",
          "name": "age",
          "type": "int8"
        },
        {
          "internalType": "enum Resume.Sex",
          "name": "sex",
          "type": "uint8"
        },
        {
          "internalType": "uint16",
          "name": "phone",
          "type": "uint16"
        },
        {
          "internalType": "string",
          "name": "Email",
          "type": "string"
        },
        {
          "internalType": "string",
          "name": "location",
          "type": "string"
        },
        {
          "internalType": "string",
          "name": "file",
          "type": "string"
        },
        {
          "internalType": "uint256",
          "name": "timestamp",
          "type": "uint256"
        },
        {
          "internalType": "string",
          "name": "doc",
          "type": "string"
        }
      ],
      "stateMutability": "view",
      "type": "function"
    },
    {
      "inputs": [
        {
          "internalType": "string",
          "name": "_name",
          "type": "string"
        },
        {
          "internalType": "int8",
          "name": "_age",
          "type": "int8"
        },
        {
          "internalType": "enum Resume.Sex",
          "name": "_sex",
          "type": "uint8"
        },
        {
          "internalType": "uint16",
          "name": "_phone",
          "type": "uint16"
        },
        {
          "internalType": "string",
          "name": "_Email",
          "type": "string"
        },
        {
          "internalType": "string",
          "name": "_location",
          "type": "string"
        },
        {
          "internalType": "string",
          "name": "_file",
          "type": "string"
        },
        {
          "internalType": "string",
          "name": "_doc",
          "type": "string"
        }
      ],
      "name": "setResumeInfo",
      "outputs": [],
      "stateMutability": "nonpayable",
      "type": "function"
    }
  ],
  "bytecode": "0x608060405234801561001057600080fd5b506118a8806100206000396000f3fe608060405234801561001057600080fd5b50600436106100575760003560e01c8063324732191461005c5780633bc5de301461007857806353837ee7146100965780636f95dfb9146100c6578063b8522043146100fe575b600080fd5b61007660048036038101906100719190610fcc565b61011c565b005b610080610499565b60405161008d9190611445565b60405180910390f35b6100b060048036038101906100ab9190610fa3565b61053e565b6040516100bd9190611510565b60405180910390f35b6100e060048036038101906100db9190610fa3565b610940565b6040516100f599989796959493929190611460565b60405180910390f35b610106610c5e565b6040516101139190611423565b60405180910390f35b600042905060006101bc3360008054806020026020016040519081016040528092919081815260200182805480156101a957602002820191906000526020600020905b8160009054906101000a900473ffffffffffffffffffffffffffffffffffffffff1673ffffffffffffffffffffffffffffffffffffffff168152602001906001019080831161015f575b5050505050610cec90919063ffffffff16565b90507fffffffffffffffffffffffffffffffffffffffffffffffffffffffffffffffff81141561024a576000339080600181540180825580915050600190039060005260206000200160009091909190916101000a81548173ffffffffffffffffffffffffffffffffffffffff021916908373ffffffffffffffffffffffffffffffffffffffff1602179055505b6040518061012001604052808b81526020018a60000b815260200189600181111561029e577f4e487b7100000000000000000000000000000000000000000000000000000000600052602160045260246000fd5b81526020018861ffff16815260200187815260200186815260200185815260200183815260200184815250600160003373ffffffffffffffffffffffffffffffffffffffff1673ffffffffffffffffffffffffffffffffffffffff1681526020019081526020016000206000820151816000019080519060200190610324929190610dba565b5060208201518160010160006101000a81548160ff021916908360000b60ff16021790555060408201518160010160016101000a81548160ff0219169083600181111561039a577f4e487b7100000000000000000000000000000000000000000000000000000000600052602160045260246000fd5b021790555060608201518160010160026101000a81548161ffff021916908361ffff16021790555060808201518160020190805190602001906103de929190610dba565b5060a08201518160030190805190602001906103fb929190610dba565b5060c0820151816004019080519060200190610418929190610dba565b5060e08201518160050155610100820151816006019080519060200190610440929190610dba565b509050507ff8a6262f00d2316711045fb6b3da17829572818cc48fa3188f0cbe929c10a539338b8b8b8b8b8b8b8a8c6040516104859a99989796959493929190611364565b60405180910390a150505050505050505050565b60008061053533600080548060200260200160405190810160405280929190818152602001828054801561052257602002820191906000526020600020905b8160009054906101000a900473ffffffffffffffffffffffffffffffffffffffff1673ffffffffffffffffffffffffffffffffffffffff16815260200190600101908083116104d8575b5050505050610cec90919063ffffffff16565b90508091505090565b610546610e40565b600160008373ffffffffffffffffffffffffffffffffffffffff1673ffffffffffffffffffffffffffffffffffffffff168152602001908152602001600020604051806101200160405290816000820180546105a1906116c1565b80601f01602080910402602001604051908101604052809291908181526020018280546105cd906116c1565b801561061a5780601f106105ef5761010080835404028352916020019161061a565b820191906000526020600020905b8154815290600101906020018083116105fd57829003601f168201915b505050505081526020016001820160009054906101000a900460000b60000b60000b81526020016001820160019054906101000a900460ff16600181111561068b577f4e487b7100000000000000000000000000000000000000000000000000000000600052602160045260246000fd5b60018111156106c3577f4e487b7100000000000000000000000000000000000000000000000000000000600052602160045260246000fd5b81526020016001820160029054906101000a900461ffff1661ffff1661ffff1681526020016002820180546106f7906116c1565b80601f0160208091040260200160405190810160405280929190818152602001828054610723906116c1565b80156107705780601f1061074557610100808354040283529160200191610770565b820191906000526020600020905b81548152906001019060200180831161075357829003601f168201915b50505050508152602001600382018054610789906116c1565b80601f01602080910402602001604051908101604052809291908181526020018280546107b5906116c1565b80156108025780601f106107d757610100808354040283529160200191610802565b820191906000526020600020905b8154815290600101906020018083116107e557829003601f168201915b5050505050815260200160048201805461081b906116c1565b80601f0160208091040260200160405190810160405280929190818152602001828054610847906116c1565b80156108945780601f1061086957610100808354040283529160200191610894565b820191906000526020600020905b81548152906001019060200180831161087757829003601f168201915b50505050508152602001600582015481526020016006820180546108b7906116c1565b80601f01602080910402602001604051908101604052809291908181526020018280546108e3906116c1565b80156109305780601f1061090557610100808354040283529160200191610930565b820191906000526020600020905b81548152906001019060200180831161091357829003601f168201915b5050505050815250509050919050565b6001602052806000526040600020600091509050806000018054610963906116c1565b80601f016020809104026020016040519081016040528092919081815260200182805461098f906116c1565b80156109dc5780601f106109b1576101008083540402835291602001916109dc565b820191906000526020600020905b8154815290600101906020018083116109bf57829003601f168201915b5050505050908060010160009054906101000a900460000b908060010160019054906101000a900460ff16908060010160029054906101000a900461ffff1690806002018054610a2b906116c1565b80601f0160208091040260200160405190810160405280929190818152602001828054610a57906116c1565b8015610aa45780601f10610a7957610100808354040283529160200191610aa4565b820191906000526020600020905b815481529060010190602001808311610a8757829003601f168201915b505050505090806003018054610ab9906116c1565b80601f0160208091040260200160405190810160405280929190818152602001828054610ae5906116c1565b8015610b325780601f10610b0757610100808354040283529160200191610b32565b820191906000526020600020905b815481529060010190602001808311610b1557829003601f168201915b505050505090806004018054610b47906116c1565b80601f0160208091040260200160405190810160405280929190818152602001828054610b73906116c1565b8015610bc05780601f10610b9557610100808354040283529160200191610bc0565b820191906000526020600020905b815481529060010190602001808311610ba357829003601f168201915b505050505090806005015490806006018054610bdb906116c1565b80601f0160208091040260200160405190810160405280929190818152602001828054610c07906116c1565b8015610c545780601f10610c2957610100808354040283529160200191610c54565b820191906000526020600020905b815481529060010190602001808311610c3757829003601f168201915b5050505050905089565b60606000805480602002602001604051908101604052809291908181526020018280548015610ce257602002820191906000526020600020905b8160009054906101000a900473ffffffffffffffffffffffffffffffffffffffff1673ffffffffffffffffffffffffffffffffffffffff1681526020019060010190808311610c98575b5050505050905090565b6000807fffffffffffffffffffffffffffffffffffffffffffffffffffffffffffffffff905060008451905060005b81811215610dae578473ffffffffffffffffffffffffffffffffffffffff16868281518110610d73577f4e487b7100000000000000000000000000000000000000000000000000000000600052603260045260246000fd5b602002602001015173ffffffffffffffffffffffffffffffffffffffff161415610d9b578092505b8080610da6906116f3565b915050610d1b565b50819250505092915050565b828054610dc6906116c1565b90600052602060002090601f016020900481019282610de85760008555610e2f565b82601f10610e0157805160ff1916838001178555610e2f565b82800160010185558215610e2f579182015b82811115610e2e578251825591602001919060010190610e13565b5b509050610e3c9190610eca565b5090565b604051806101200160405280606081526020016000800b815260200160006001811115610e96577f4e487b7100000000000000000000000000000000000000000000000000000000600052602160045260246000fd5b8152602001600061ffff16815260200160608152602001606081526020016060815260200160008152602001606081525090565b5b80821115610ee3576000816000905550600101610ecb565b5090565b6000610efa610ef584611563565b611532565b905082815260208101848484011115610f1257600080fd5b610f1d84828561167f565b509392505050565b600081359050610f348161181d565b92915050565b600081359050610f4981611834565b92915050565b600081359050610f5e81611844565b92915050565b600082601f830112610f7557600080fd5b8135610f85848260208601610ee7565b91505092915050565b600081359050610f9d8161185b565b92915050565b600060208284031215610fb557600080fd5b6000610fc384828501610f25565b91505092915050565b600080600080600080600080610100898b031215610fe957600080fd5b600089013567ffffffffffffffff81111561100357600080fd5b61100f8b828c01610f64565b98505060206110208b828c01610f4f565b97505060406110318b828c01610f3a565b96505060606110428b828c01610f8e565b955050608089013567ffffffffffffffff81111561105f57600080fd5b61106b8b828c01610f64565b94505060a089013567ffffffffffffffff81111561108857600080fd5b6110948b828c01610f64565b93505060c089013567ffffffffffffffff8111156110b157600080fd5b6110bd8b828c01610f64565b92505060e089013567ffffffffffffffff8111156110da57600080fd5b6110e68b828c01610f64565b9150509295985092959890939650565b6000611102838361110e565b60208301905092915050565b611117816115f9565b82525050565b611126816115f9565b82525050565b6000611137826115a3565b61114181856115c6565b935061114c83611593565b8060005b8381101561117d57815161116488826110f6565b975061116f836115b9565b925050600181019050611150565b5085935050505092915050565b6111938161166d565b82525050565b6111a28161166d565b82525050565b6111b18161161e565b82525050565b6111c081611628565b82525050565b6111cf81611628565b82525050565b60006111e0826115ae565b6111ea81856115d7565b93506111fa81856020860161168e565b611203816117f8565b840191505092915050565b6000611219826115ae565b61122381856115e8565b935061123381856020860161168e565b61123c816117f8565b840191505092915050565b600061012083016000830151848203600086015261126582826111d5565b915050602083015161127a60208601826111b7565b50604083015161128d604086018261118a565b5060608301516112a06060860182611328565b50608083015184820360808601526112b882826111d5565b91505060a083015184820360a08601526112d282826111d5565b91505060c083015184820360c08601526112ec82826111d5565b91505060e083015161130160e0860182611346565b5061010083015184820361010086015261131b82826111d5565b9150508091505092915050565b61133181611635565b82525050565b61134081611635565b82525050565b61134f81611663565b82525050565b61135e81611663565b82525050565b60006101408201905061137a600083018d61111d565b818103602083015261138c818c61120e565b905061139b604083018b6111c6565b6113a8606083018a611199565b6113b56080830189611337565b81810360a08301526113c7818861120e565b905081810360c08301526113db818761120e565b905081810360e08301526113ef818661120e565b90506113ff610100830185611355565b818103610120830152611412818461120e565b90509b9a5050505050505050505050565b6000602082019050818103600083015261143d818461112c565b905092915050565b600060208201905061145a60008301846111a8565b92915050565b600061012082019050818103600083015261147b818c61120e565b905061148a602083018b6111c6565b611497604083018a611199565b6114a46060830189611337565b81810360808301526114b6818861120e565b905081810360a08301526114ca818761120e565b905081810360c08301526114de818661120e565b90506114ed60e0830185611355565b818103610100830152611500818461120e565b90509a9950505050505050505050565b6000602082019050818103600083015261152a8184611247565b905092915050565b6000604051905081810181811067ffffffffffffffff82111715611559576115586117c9565b5b8060405250919050565b600067ffffffffffffffff82111561157e5761157d6117c9565b5b601f19601f8301169050602081019050919050565b6000819050602082019050919050565b600081519050919050565b600081519050919050565b6000602082019050919050565b600082825260208201905092915050565b600082825260208201905092915050565b600082825260208201905092915050565b600061160482611643565b9050919050565b600081905061161982611809565b919050565b6000819050919050565b60008160000b9050919050565b600061ffff82169050919050565b600073ffffffffffffffffffffffffffffffffffffffff82169050919050565b6000819050919050565b60006116788261160b565b9050919050565b82818337600083830152505050565b60005b838110156116ac578082015181840152602081019050611691565b838111156116bb576000848401525b50505050565b600060028204905060018216806116d957607f821691505b602082108114156116ed576116ec61179a565b5b50919050565b60006116fe8261161e565b91507f7fffffffffffffffffffffffffffffffffffffffffffffffffffffffffffffff8214156117315761173061173c565b5b600182019050919050565b7f4e487b7100000000000000000000000000000000000000000000000000000000600052601160045260246000fd5b7f4e487b7100000000000000000000000000000000000000000000000000000000600052602160045260246000fd5b7f4e487b7100000000000000000000000000000000000000000000000000000000600052602260045260246000fd5b7f4e487b7100000000000000000000000000000000000000000000000000000000600052604160045260246000fd5b6000601f19601f8301169050919050565b6002811061181a5761181961176b565b5b50565b611826816115f9565b811461183157600080fd5b50565b6002811061184157600080fd5b50565b61184d81611628565b811461185857600080fd5b50565b61186481611635565b811461186f57600080fd5b5056fea2646970667358221220d063426bc764b9adf69648f8e254244d13e71a5cadd01137435faae6efb5b6ed64736f6c63430008000033",
  "linkReferences": {},
  "deployedLinkReferences": {}
}