{
  "_format": "hh-sol-artifact-1",
  "contractName": "Resume",
  "sourceName": "contracts/Resume.sol",
  "abi": [
    {
      "anonymous": false,
      "inputs": [
        {
          "indexed": false,
          "internalType": "address",
          "name": "sender",
          "type": "address"
        },
        {
          "indexed": false,
          "internalType": "string",
          "name": "name",
          "type": "string"
        },
        {
          "indexed": false,
          "internalType": "int8",
          "name": "age",
          "type": "int8"
        },
        {
          "indexed": false,
          "internalType": "enum Resume.Sex",
          "name": "sex",
          "type": "uint8"
        },
        {
          "indexed": false,
          "internalType": "uint16",
          "name": "phone",
          "type": "uint16"
        },
        {
          "indexed": false,
          "internalType": "string",
          "name": "Email",
          "type": "string"
        },
        {
          "indexed": false,
          "internalType": "string",
          "name": "location",
          "type": "string"
        },
        {
          "indexed": false,
          "internalType": "string",
          "name": "file",
          "type": "string"
        },
        {
          "indexed": false,
          "internalType": "uint256",
          "name": "date",
          "type": "uint256"
        },
        {
          "indexed": false,
          "internalType": "string",
          "name": "doc",
          "type": "string"
        }
      ],
      "name": "ResumeInfoEvent",
      "type": "event"
    },
    {
      "inputs": [],
      "name": "getActiveUser",
      "outputs": [
        {
          "components": [
            {
              "internalType": "string",
              "name": "name",
              "type": "string"
            },
            {
              "internalType": "int8",
              "name": "age",
              "type": "int8"
            },
            {
              "internalType": "enum Resume.Sex",
              "name": "sex",
              "type": "uint8"
            },
            {
              "internalType": "uint16",
              "name": "phone",
              "type": "uint16"
            },
            {
              "internalType": "string",
              "name": "Email",
              "type": "string"
            },
            {
              "internalType": "string",
              "name": "location",
              "type": "string"
            },
            {
              "internalType": "string",
              "name": "file",
              "type": "string"
            },
            {
              "internalType": "uint256",
              "name": "timestamp",
              "type": "uint256"
            },
            {
              "internalType": "string",
              "name": "doc",
              "type": "string"
            }
          ],
          "internalType": "struct Resume.ResumeInfo",
          "name": "",
          "type": "tuple"
        }
      ],
      "stateMutability": "view",
      "type": "function"
    },
    {
      "inputs": [],
      "name": "getData",
      "outputs": [
        {
          "internalType": "int256",
          "name": "",
          "type": "int256"
        }
      ],
      "stateMutability": "view",
      "type": "function"
    },
    {
      "inputs": [
        {
          "internalType": "address",
          "name": "",
          "type": "address"
        }
      ],
      "name": "resumeInfo",
      "outputs": [
        {
          "internalType": "string",
          "name": "name",
          "type": "string"
        },
        {
          "internalType": "int8",
          "name": "age",
          "type": "int8"
        },
        {
          "internalType": "enum Resume.Sex",
          "name": "sex",
          "type": "uint8"
        },
        {
          "internalType": "uint16",
          "name": "phone",
          "type": "uint16"
        },
        {
          "internalType": "string",
          "name": "Email",
          "type": "string"
        },
        {
          "internalType": "string",
          "name": "location",
          "type": "string"
        },
        {
          "internalType": "string",
          "name": "file",
          "type": "string"
        },
        {
          "internalType": "uint256",
          "name": "timestamp",
          "type": "uint256"
        },
        {
          "internalType": "string",
          "name": "doc",
          "type": "string"
        }
      ],
      "stateMutability": "view",
      "type": "function"
    },
    {
      "inputs": [
        {
          "internalType": "string",
          "name": "_name",
          "type": "string"
        },
        {
          "internalType": "int8",
          "name": "_age",
          "type": "int8"
        },
        {
          "internalType": "enum Resume.Sex",
          "name": "_sex",
          "type": "uint8"
        },
        {
          "internalType": "uint16",
          "name": "_phone",
          "type": "uint16"
        },
        {
          "internalType": "string",
          "name": "_Email",
          "type": "string"
        },
        {
          "internalType": "string",
          "name": "_location",
          "type": "string"
        },
        {
          "internalType": "string",
          "name": "_file",
          "type": "string"
        },
        {
          "internalType": "string",
          "name": "_doc",
          "type": "string"
        }
      ],
      "name": "setResumeInfo",
      "outputs": [],
      "stateMutability": "nonpayable",
      "type": "function"
    }
  ],
  "bytecode": "0x608060405234801561001057600080fd5b506116fd806100206000396000f3fe608060405234801561001057600080fd5b506004361061004c5760003560e01c806332473219146100515780633bc5de301461006d5780636f95dfb91461008b578063ecf929b8146100c3575b600080fd5b61006b60048036038101906100669190610f01565b6100e1565b005b61007561045e565b60405161008291906112d3565b60405180910390f35b6100a560048036038101906100a09190610ed8565b610503565b6040516100ba999897969594939291906112ee565b60405180910390f35b6100cb610821565b6040516100d8919061139e565b60405180910390f35b6000429050600061018133600080548060200260200160405190810160405280929190818152602001828054801561016e57602002820191906000526020600020905b8160009054906101000a900473ffffffffffffffffffffffffffffffffffffffff1673ffffffffffffffffffffffffffffffffffffffff1681526020019060010190808311610124575b5050505050610c2190919063ffffffff16565b90507fffffffffffffffffffffffffffffffffffffffffffffffffffffffffffffffff81141561020f576000339080600181540180825580915050600190039060005260206000200160009091909190916101000a81548173ffffffffffffffffffffffffffffffffffffffff021916908373ffffffffffffffffffffffffffffffffffffffff1602179055505b6040518061012001604052808b81526020018a60000b8152602001896001811115610263577f4e487b7100000000000000000000000000000000000000000000000000000000600052602160045260246000fd5b81526020018861ffff16815260200187815260200186815260200185815260200183815260200184815250600160003373ffffffffffffffffffffffffffffffffffffffff1673ffffffffffffffffffffffffffffffffffffffff16815260200190815260200160002060008201518160000190805190602001906102e9929190610cef565b5060208201518160010160006101000a81548160ff021916908360000b60ff16021790555060408201518160010160016101000a81548160ff0219169083600181111561035f577f4e487b7100000000000000000000000000000000000000000000000000000000600052602160045260246000fd5b021790555060608201518160010160026101000a81548161ffff021916908361ffff16021790555060808201518160020190805190602001906103a3929190610cef565b5060a08201518160030190805190602001906103c0929190610cef565b5060c08201518160040190805190602001906103dd929190610cef565b5060e08201518160050155610100820151816006019080519060200190610405929190610cef565b509050507ff8a6262f00d2316711045fb6b3da17829572818cc48fa3188f0cbe929c10a539338b8b8b8b8b8b8b8a8c60405161044a9a99989796959493929190611214565b60405180910390a150505050505050505050565b6000806104fa3360008054806020026020016040519081016040528092919081815260200182805480156104e757602002820191906000526020600020905b8160009054906101000a900473ffffffffffffffffffffffffffffffffffffffff1673ffffffffffffffffffffffffffffffffffffffff168152602001906001019080831161049d575b5050505050610c2190919063ffffffff16565b90508091505090565b600160205280600052604060002060009150905080600001805461052690611516565b80601f016020809104026020016040519081016040528092919081815260200182805461055290611516565b801561059f5780601f106105745761010080835404028352916020019161059f565b820191906000526020600020905b81548152906001019060200180831161058257829003601f168201915b5050505050908060010160009054906101000a900460000b908060010160019054906101000a900460ff16908060010160029054906101000a900461ffff16908060020180546105ee90611516565b80601f016020809104026020016040519081016040528092919081815260200182805461061a90611516565b80156106675780601f1061063c57610100808354040283529160200191610667565b820191906000526020600020905b81548152906001019060200180831161064a57829003601f168201915b50505050509080600301805461067c90611516565b80601f01602080910402602001604051908101604052809291908181526020018280546106a890611516565b80156106f55780601f106106ca576101008083540402835291602001916106f5565b820191906000526020600020905b8154815290600101906020018083116106d857829003601f168201915b50505050509080600401805461070a90611516565b80601f016020809104026020016040519081016040528092919081815260200182805461073690611516565b80156107835780601f1061075857610100808354040283529160200191610783565b820191906000526020600020905b81548152906001019060200180831161076657829003601f168201915b50505050509080600501549080600601805461079e90611516565b80601f01602080910402602001604051908101604052809291908181526020018280546107ca90611516565b80156108175780601f106107ec57610100808354040283529160200191610817565b820191906000526020600020905b8154815290600101906020018083116107fa57829003601f168201915b5050505050905089565b610829610d75565b600160003373ffffffffffffffffffffffffffffffffffffffff1673ffffffffffffffffffffffffffffffffffffffff1681526020019081526020016000206040518061012001604052908160008201805461088490611516565b80601f01602080910402602001604051908101604052809291908181526020018280546108b090611516565b80156108fd5780601f106108d2576101008083540402835291602001916108fd565b820191906000526020600020905b8154815290600101906020018083116108e057829003601f168201915b505050505081526020016001820160009054906101000a900460000b60000b60000b81526020016001820160019054906101000a900460ff16600181111561096e577f4e487b7100000000000000000000000000000000000000000000000000000000600052602160045260246000fd5b60018111156109a6577f4e487b7100000000000000000000000000000000000000000000000000000000600052602160045260246000fd5b81526020016001820160029054906101000a900461ffff1661ffff1661ffff1681526020016002820180546109da90611516565b80601f0160208091040260200160405190810160405280929190818152602001828054610a0690611516565b8015610a535780601f10610a2857610100808354040283529160200191610a53565b820191906000526020600020905b815481529060010190602001808311610a3657829003601f168201915b50505050508152602001600382018054610a6c90611516565b80601f0160208091040260200160405190810160405280929190818152602001828054610a9890611516565b8015610ae55780601f10610aba57610100808354040283529160200191610ae5565b820191906000526020600020905b815481529060010190602001808311610ac857829003601f168201915b50505050508152602001600482018054610afe90611516565b80601f0160208091040260200160405190810160405280929190818152602001828054610b2a90611516565b8015610b775780601f10610b4c57610100808354040283529160200191610b77565b820191906000526020600020905b815481529060010190602001808311610b5a57829003601f168201915b5050505050815260200160058201548152602001600682018054610b9a90611516565b80601f0160208091040260200160405190810160405280929190818152602001828054610bc690611516565b8015610c135780601f10610be857610100808354040283529160200191610c13565b820191906000526020600020905b815481529060010190602001808311610bf657829003601f168201915b505050505081525050905090565b6000807fffffffffffffffffffffffffffffffffffffffffffffffffffffffffffffffff905060008451905060005b81811215610ce3578473ffffffffffffffffffffffffffffffffffffffff16868281518110610ca8577f4e487b7100000000000000000000000000000000000000000000000000000000600052603260045260246000fd5b602002602001015173ffffffffffffffffffffffffffffffffffffffff161415610cd0578092505b8080610cdb90611548565b915050610c50565b50819250505092915050565b828054610cfb90611516565b90600052602060002090601f016020900481019282610d1d5760008555610d64565b82601f10610d3657805160ff1916838001178555610d64565b82800160010185558215610d64579182015b82811115610d63578251825591602001919060010190610d48565b5b509050610d719190610dff565b5090565b604051806101200160405280606081526020016000800b815260200160006001811115610dcb577f4e487b7100000000000000000000000000000000000000000000000000000000600052602160045260246000fd5b8152602001600061ffff16815260200160608152602001606081526020016060815260200160008152602001606081525090565b5b80821115610e18576000816000905550600101610e00565b5090565b6000610e2f610e2a846113f1565b6113c0565b905082815260208101848484011115610e4757600080fd5b610e528482856114d4565b509392505050565b600081359050610e6981611672565b92915050565b600081359050610e7e81611689565b92915050565b600081359050610e9381611699565b92915050565b600082601f830112610eaa57600080fd5b8135610eba848260208601610e1c565b91505092915050565b600081359050610ed2816116b0565b92915050565b600060208284031215610eea57600080fd5b6000610ef884828501610e5a565b91505092915050565b600080600080600080600080610100898b031215610f1e57600080fd5b600089013567ffffffffffffffff811115610f3857600080fd5b610f448b828c01610e99565b9850506020610f558b828c01610e84565b9750506040610f668b828c01610e6f565b9650506060610f778b828c01610ec3565b955050608089013567ffffffffffffffff811115610f9457600080fd5b610fa08b828c01610e99565b94505060a089013567ffffffffffffffff811115610fbd57600080fd5b610fc98b828c01610e99565b93505060c089013567ffffffffffffffff811115610fe657600080fd5b610ff28b828c01610e99565b92505060e089013567ffffffffffffffff81111561100f57600080fd5b61101b8b828c01610e99565b9150509295985092959890939650565b6110348161144e565b82525050565b611043816114c2565b82525050565b611052816114c2565b82525050565b61106181611473565b82525050565b6110708161147d565b82525050565b61107f8161147d565b82525050565b600061109082611421565b61109a818561142c565b93506110aa8185602086016114e3565b6110b38161164d565b840191505092915050565b60006110c982611421565b6110d3818561143d565b93506110e38185602086016114e3565b6110ec8161164d565b840191505092915050565b60006101208301600083015184820360008601526111158282611085565b915050602083015161112a6020860182611067565b50604083015161113d604086018261103a565b50606083015161115060608601826111d8565b50608083015184820360808601526111688282611085565b91505060a083015184820360a08601526111828282611085565b91505060c083015184820360c086015261119c8282611085565b91505060e08301516111b160e08601826111f6565b506101008301518482036101008601526111cb8282611085565b9150508091505092915050565b6111e18161148a565b82525050565b6111f08161148a565b82525050565b6111ff816114b8565b82525050565b61120e816114b8565b82525050565b60006101408201905061122a600083018d61102b565b818103602083015261123c818c6110be565b905061124b604083018b611076565b611258606083018a611049565b61126560808301896111e7565b81810360a083015261127781886110be565b905081810360c083015261128b81876110be565b905081810360e083015261129f81866110be565b90506112af610100830185611205565b8181036101208301526112c281846110be565b90509b9a5050505050505050505050565b60006020820190506112e86000830184611058565b92915050565b6000610120820190508181036000830152611309818c6110be565b9050611318602083018b611076565b611325604083018a611049565b61133260608301896111e7565b818103608083015261134481886110be565b905081810360a083015261135881876110be565b905081810360c083015261136c81866110be565b905061137b60e0830185611205565b81810361010083015261138e81846110be565b90509a9950505050505050505050565b600060208201905081810360008301526113b881846110f7565b905092915050565b6000604051905081810181811067ffffffffffffffff821117156113e7576113e661161e565b5b8060405250919050565b600067ffffffffffffffff82111561140c5761140b61161e565b5b601f19601f8301169050602081019050919050565b600081519050919050565b600082825260208201905092915050565b600082825260208201905092915050565b600061145982611498565b9050919050565b600081905061146e8261165e565b919050565b6000819050919050565b60008160000b9050919050565b600061ffff82169050919050565b600073ffffffffffffffffffffffffffffffffffffffff82169050919050565b6000819050919050565b60006114cd82611460565b9050919050565b82818337600083830152505050565b60005b838110156115015780820151818401526020810190506114e6565b83811115611510576000848401525b50505050565b6000600282049050600182168061152e57607f821691505b60208210811415611542576115416115ef565b5b50919050565b600061155382611473565b91507f7fffffffffffffffffffffffffffffffffffffffffffffffffffffffffffffff82141561158657611585611591565b5b600182019050919050565b7f4e487b7100000000000000000000000000000000000000000000000000000000600052601160045260246000fd5b7f4e487b7100000000000000000000000000000000000000000000000000000000600052602160045260246000fd5b7f4e487b7100000000000000000000000000000000000000000000000000000000600052602260045260246000fd5b7f4e487b7100000000000000000000000000000000000000000000000000000000600052604160045260246000fd5b6000601f19601f8301169050919050565b6002811061166f5761166e6115c0565b5b50565b61167b8161144e565b811461168657600080fd5b50565b6002811061169657600080fd5b50565b6116a28161147d565b81146116ad57600080fd5b50565b6116b98161148a565b81146116c457600080fd5b5056fea2646970667358221220b0fa872b73fb9fdbee8c65010e619f7bf5ea3fabbe8b89d0e9addc31b1498ae764736f6c63430008000033",
  "linkReferences": {},
  "deployedLinkReferences": {}
}